:1000000098290020192100006FBD0000ED1F00009D
:10001000ED1F0000ED1F0000ED1F0000ED1F0000B0
:10002000ED1F0000ED1F0000ED1F0000E51E0000A9
:10003000ED1F0000ED1F0000911E00005FBD0000DD
:10004000D9200000D9200000D9200000D9200000CC
:10005000D9200000D9200000D9200000D9200000BC
:10006000D9200000D9200000D9200000D9200000AC
:10007000D9200000D9200000D9200000D92000009C
:10008000D9200000D9200000D9200000D92000008C
:10009000D9200000D9200000D9200000D92000007C
:1000A000D9200000D9200000D9200000D92000006C
:1000B000D9200000D9200000D9200000D92000005C
:1000C000D9200000D9200000D9200000D92000004C
:1000D000D9200000D9200000D9200000D92000003C
:1000E000D9200000D9200000D9200000D92000002C
:1000F000D9200000D9200000D9200000D92000001C
:10010000D9200000D9200000D9200000D92000000B
:10011000D9200000D9200000D9200000D9200000FB
:10012000D9200000D9200000D9200000D9200000EB
:10013000D9200000D9200000D9200000D9200000DB
:10014000D9200000D9200000D9200000D9200000CB
:04015000D9200000B2
:1001540053B94AB9002908BF00281CBF4FF0FF312A
:100164004FF0FF3000F070B9ADF1080C6DE904CE2A
:1001740000F006F8DDF804E0DDE9022304B070477E
:100184002DE9F04F099E04468946002B40F08380F8
:100194008A42154645D9B2FA82F24AB1C2F1200721
:1001A40001FA02F39540944020FA07F747EA03095D
:1001B4004FEA154E230C1FFA85F8B9FBFEFC0EFB23
:1001C4001C990CFB08F143EA094399420AD9EB183C
:1001D4002CBF01200020994202D9002800F01D8183
:1001E4000CF1FF3C591AA3B2B1FBFEF00EFB101147
:1001F40000FB08F843EA0144A04505D92C1902D2B2
:10020400A04500F20E810138A4EB080440EA0C403A
:1002140000271EB1D4400023C6E900433946BDE897
:10022400F08F002A51D0B2FA82F2002A40F0AF8057
:10023400491B4FEA154E1FFA85F80127230CB1FB21
:10024400FEFC0EFB1C1108FB0CF043EA0143984230
:100254000AD9EB182CBF01210021984202D90029A8
:1002640000F0D7800CF1FF3C191AA3B2B1FBFEF0E9
:100274000EFB101108FB00F843EA0144A04505D920
:100284002C1902D2A04500F2C1800138A4EB080465
:1002940040EA0C40BDE78B4208D9002E74D00027F9
:1002A400C6E9000138463946BDE8F08FB3FA83F752
:1002B40067B98B42C0F0A480824240F2A1803846E4
:1002C400002EABD0C6E90049A8E7FFDEC7F1200540
:1002D400BB4002FA07FC01FA07F4EA4020FA05F8E9
:1002E400E94000FA07FE1A4348EA04044FEA1248B8
:1002F400200C1FFA82F9B1FBF8FA08FB1A110AFB69
:1003040009FB40EA01418B450AD951182CBF01234E
:1003140000238B4502D9002B00F088800AF1FF3AB4
:10032400A1EB0B01A4B2B1FBF8F008FB101100FB28
:1003340009F944EA0141894504D9511801D2894592
:100344007BD8013840EA0A40A1EB0901A0FB0C89E3
:10035400494544464B4602D306D1C64504D201382A
:10036400B8EB0C0469EB0203002E5DD0BEEB040273
:1003740061EB030101FA05F522FA07F3F9400027BE
:100384001D43C6E9005149E73746304646E7C2F106
:100394002000954001FA02F721FA00F34FEA154EC6
:1003A40024FA00F11FFA85F894403943B3FBFEF0B8
:1003B4000F0C0EFB103300FB08FC47EA03439C457B
:1003C40007D9EB182CBF012700279C4500D98FB310
:1003D4000138A3EB0C0389B2B3FBFEF70EFB173312
:1003E40007FB08FC41EA03418C4504D9691801D292
:1003F4008C4525D8013FA1EB0C0147EA00471DE7D6
:10040400841A61EB03030120994659E702382C440E
:100414003CE7ACF1020C2B4426E7ACF1020C2B4474
:10042400E0E602382C44EFE63746F7E6AAF1020A82
:10043400114475E702382B44CBE70238114481E7B5
:10044400023F2944D7E700BF704700BF01480AF0C4
:1004540017BC00BF91F000001FB5014628B1164833
:100464000AF00EFC05B05DF804FB144805F0D6FB59
:1004740000F01EF9014608B11148F1E7A02201235A
:10048400ADF80A20F022ADF80800ADF80C208DF884
:10049400093000930B490C4B022202A80BF0A6FE74
:1004A400014608B10948DBE709480AF0E9FB0948B5
:1004B40009F0E6FCD6E700BF29EF00002049002040
:1004C4004DEF000008E8000018E800006AEF0000A3
:1004D40090EF0000804C002070B503788AB0044689
:1004E4000E4607AD032B20D8DFE803F002191B1DCD
:1004F400114928460BF074FC637805950493A3789E
:100504000E4A0393E3781E21029323793046019324
:1005140063790093A3790AF0C0FB0AB070BD08495F
:10052400E7E70849E5E70849E3E7084A0A212846D6
:100534000AF0B3FBE0E700BFE4EE000006EF0000C2
:10054400EBEE0000F2EE0000FCEE00003D030100C3
:1005540010B5134B92B00446186021B111480AF04B
:100564008FFB12B010BD03A905F018FE18B10E4898
:100574000AF086FBF5E720460BF0EDFE0AA9FFF72B
:10058400ABFFBDF824309DF80D200193BDF8223057
:100594000AA900930548BDF820300AF071FBE0E792
:1005A40070010020B2EF0000CEEF0000EFEF00007A
:1005B40010B592B003A9044605F0F0FD20B10B4834
:1005C4000AF05EFB12B010BD20460BF0C4FE0AA96F
:1005D400FFF782FFBDF82430BDF8202000930AA95C
:1005E400BDF8223002480AF04BFBEBE7CEEF0000E7
:1005F400B3F0000008B5044C20460AF041FB4FF468
:100604007A7009F00FFCF7E7ABF00000002313B594
:10061400134801930AF034FB124804F071FD20B131
:1006240011480AF02DFBFFF7E5FF64210F4809F09C
:1006340053FC98B90E480AF023FB00F039F80D4C2E
:10064400042220680DEB020100F044F8019B013301
:1006540001934FF47A7009F0E5FBF1E70648E0E70F
:1006640056F100005D0400007FF10000804C002082
:100674009AF1000070010020B1F10000022902D9B2
:1006840001480AF0FDBA704747F2000010B51C4655
:100694000246098A02480AF0F3FA204610BD00BF58
:1006A40074F20000014601480AF0EABA96F200002A
:1006B40008B5F022002105480BF019FCF0220021B6
:1006C40003480BF014FC002008BD00BF9A12002060
:1006D4008A130020F0B500238DB001AC06460F4606
:1006E400A446CDF82630CDF82A30ADF82E30134B81
:1006F40003F1100E254618685968083303C573457D
:100704002C46F7D11B780E492B700E4BADF82420E4
:1007140030460122CDF818C0CDE907170A930CF032
:1007240077FB48B106A9304607F056FB10B10648DE
:100734000AF0A6FA0DB0F0BD0448F9E7F4E70000AA
:100744005CE80000A9060000E8F100000CF20000DB
:100754000B6801330B60014B1B6818475C49002090
:100764002DE9F04F85B00E9C9B46012CB8BF0124A7
:10077400012B0CBF302320231646824688460125D0
:100784000A270022DFF86C900293B6FBF9F3019379
:100794000AB9B1451CD8019B414603F13000D0474A
:1007A40001220135019B013F09FB13660A23012F36
:1007B400B9FBF3F9E9D1414606F13000D047BBF16A
:1007C400030F02D1641B002C0EDC05B0BDE8F08FD2
:1007D400BC42E7DBBBF1020FE4D841460298039226
:1007E4000135D047039ADDE741462020D047013C3C
:1007F400E9E700BF00CA9A3B014B1860704700BF8D
:100804005C490020002307B50246019303480B46C8
:1008140001A90AF0C5F803B05DF804FB5507000010
:1008240030B5002585B0CDE90101044601A905488C
:1008340003950AF0B5F8DDE902309842B8BF2554B3
:1008440005B030BD7FA900004FF02003EFF3118104
:1008540083F31188BFF36F8F0123094AC2F800356F
:1008640002F55B52103253631360C2F83432C2F89B
:10087400303481F31188BFF36F8F0020704700BFBD
:1008840000100050F0B507468DB0274E01AD0C4660
:100894000FCE0FC50FCE0FC596E8070085E80700F9
:1008A400002F3DD0002C3DD0381F02462146103485
:1008B4004B780D781B0443EA0563CD7804312B4350
:1008C40011F8025C8C4243EA052342F8043FEFD15D
:1008D4000421164C8A07036918D14FEA33631A0EB0
:1008E400A55CDAB2A25C42EA0562C3F30745655D22
:1008F400C3F30723E35C42EA054242EA03220CAD58
:1009040021F003032B4453F82C3C534050F8042F9C
:10091400013153402C290361DCD101200DB0F0BD1D
:100924003846FBE72046F9E78CE70000B2F2000006
:100934002DE9F043154689B00746002859D000290F
:100944005AD0002A5AD010230A4668461946DFF8BE
:10095400B0900AF0D7F9294668460AF0EBF9C84680
:1009640005F11006A0356C466A4610231178013B48
:1009740019F8011002F8011BF8D168460AF01FFAB1
:10098400694604A80AF054FA01A905A80AF050FA25
:1009940002A906A80AF04CFA03A907A80AF048FA23
:1009A4001023684619460DEB03020AF0ABF93146F1
:1009B400684610360AF0BEF9AE42D4D11026237828
:1009C400013E18F8033004F8013BF8D168460AF0F8
:1009D400F6F9294668460AF0ADF910236A46194625
:1009E40038460AF08FF96846102231460AF097F922
:1009F400012009B0BDE8F0830846FAE71046F8E79D
:100A0400B2F200002DE9F04F03689DB002934368F1
:100A140000270393836800910493C3686549059391
:100A24000369029C06934369DDE905E20793836940
:100A3400DDE9036A0893C369DDE907CB98460993A6
:100A4400009BDD590CAB2DBADD5151F8043B043742
:100A540005EB03094FEAF22585EAB21585EA7265CA
:100A64004D442BEA020302EA0C0983EA09032B44EE
:100A7400434486EA0A054FEA743888EAB4082540F4
:100A840006EA0A0985EA090588EAB458A844402F09
:100A940003EB0E054344D646D8467DD146490A9118
:100AA40010214F1C0DF1700E0B9707F00F070EEB82
:100AB400870757F8407C01F00F094FEAB7480097C1
:100AC40088EAF71801F10E0707F00F070EEB870706
:100AD40057F8407C09314FEAF74E01978EEA774E7A
:100AE40001F00F011CAF07EB890907EB810151F8F5
:100AF400401C59F8407C3944009F88EAD708019F7C
:100B040041448EEA972E0A9F714457F804EB49F842
:100B1400401C4FEAF5290A9789EAB5192CEA05071A
:100B240005EA020889EA756987EA08074F447744A9
:100B3400394459444FEA733784EA060B0BEA030B32
:100B440087EAB30704EA060E87EAB3578BEA0E0E68
:100B5400BE448E4401EB0A070B99B2464029E34692
:100B640021D102997144016003991944049B4160A5
:100B740023448360059B3344C360069B3B44036169
:100B8400079B2B444361089B13448361099B634483
:100B9400C3611DB0BDE8F08FE346B24694462646D5
:100BA4002A461C464CE7944626462A461C463D46A1
:100BB400734676E798E80000D8E8000010B50446CC
:100BC400C8B1702200210AF0AAF80B4B0B4A0C4959
:100BD400C4E900230B4B0C48C4E902130B4BC4E9D2
:100BE400040301200A4BA36103F17453A3F5230307
:100BF400A3F69243E36110BD85AE67BB67E6096A5D
:100C040072F36E3C3AF54FA57F520E518C68059BEA
:100C1400ABD9831F30B5002287B00D490D480DF0C4
:100C240091FA00240E230C4DCDE90243CDE904448E
:100C3400CDE90044094B4FF440720949284609F0B4
:100C4400C3F9084928460DF09FF9204607B030BD86
:100C54006D0C000088010020D00100202D10000040
:100C640098160020B2F30000014809F009B900BF4A
:100C7400984C002008B500F033FA09480AF03BFC10
:100C840004232822074908480CF048FF074B084A68
:100C94004FF400401A60BDE8084000F061BC00BF9A
:100CA40080010020D83A0020B401002060490020CF
:100CB40039B50000F8B500250C4BD3E8EF7FC3E845
:100CC400E25F002AF9D10A4C0A4E361B3611B542AE
:100CD40000DBF8BD63685B792BB12368DB6813B173
:100CE40039462046984701351034F0E77801002052
:100CF4007CE700008CE70000044BD3E8EF2F0132BF
:100D0400C3E8E12F0029F8D1704700BF7801002023
:100D1400044A054B9B1AB1EBD30F34BF52F8310090
:100D240000207047DCE600007CE70000094B4268C5
:100D3400C31A1B11013310B5137101224368064C09
:100D44005A712278196012B9044809F099F80123FC
:100D5400237010BD7CE700007A140020984C00201A
:100D640070B50F4BD3E8EF5F6A1CC3E8E12F00298D
:100D7400F8D12DB90B4C0C4E361B3611B54200DBA5
:100D840070BD237B43B123685B6903B19847042298
:100D940000212046FFF7CAFF01351034EEE700BFFB
:100DA4007C0100207CE700008CE70000144B37B581
:100DB4009842044602D3134B98421BD3002201A944
:100DC400114808F037FC0546B8B90122019BD3E865
:100DD400EF1FC3E8E02F0028F9D1019821461F2214
:100DE40004300BF007F87E23019C84F8233084F848
:100DF40024500434204603B030BD044CFAE700BF4D
:100E0400B8E30000E40D0100B4010020BAF30000CF
:100E140048B1054B984205D3A03398422CBF00201B
:100E24000120704700207047D83A00202DE9F84F80
:100E3400444B05461B7803B940B34FF02003EFF34E
:100E4400118683F31188BFF36F8F3F480AF063FB69
:100E5400044686F31188BFF36F8F58B13B4BD3E838
:100E6400EF2F013AC3E8E12F0029F8D18DB12046D4
:100E74000AF05EFC25B9364B1B680BB1FFF71AFF6D
:100E840031480AF046FB051C18BF01252846BDE879
:100E9400F88F304B1B78ABB9237ADB0712D40AF0F6
:100EA40056FC814620460AF023FC014648460AF0D7
:100EB40045FB0746284B294ADFF8B8B09B1AC3F311
:100EC400C90A37B9264E274F4FF00008BF1B3F1100
:100ED40034E0B7FA87F6C6F11F06314620460AF019
:100EE4000AFC214B0246984202D3204B984214D369
:100EF4001046FFF78DFF80B91D4B9A420DD028F0A4
:100F04003F0343F0010363F307086AF38F18434672
:100F14004A46314658460AF052FB012303FA06F6C4
:100F240027EA0607CDE773685B7923B13368214666
:100F34001B683046984708F101081036B845F2DBC3
:100F440095E700BF7A14002080010020740100207E
:100F5400780100207B1400203CE70000DCE6000060
:100F64007CE700008CE70000B8E30000E40D01001A
:100F7400BAF30000D8F30000244B70B51B6841811C
:100F840005469847224CE860D4E8EF3F0133C4E8B3
:100F9400E23F002AF8D14FF02003EFF3118683F3E8
:100FA4001188BFF36F8F1B4829460AF0A8FA86F30D
:100FB4001188BFF36F8F184B1A787AB14FF0200362
:100FC400EFF3118483F31188BFF36F8F0020FFF7D1
:100FD4002DFF84F31188BFF36F8F70BD0F49236811
:100FE40009680029F9D0012B06D1BDE870404FF4FF
:100FF4007A710B4809F038BA0A2BEED108480DF083
:10100400ADF8BDE87040074808F03ABF60490020D9
:1010140074010020800100207B1400203C02002089
:1010240088010020984C002008B5FFF799FE08F0CD
:1010340021FF0B4B186030B10A4B1B68092B02DDF2
:10104400094808F01DFF084C0020FFF7EFFE0028B8
:10105400FAD14FF0FF31204608F03EFFF4E700BF1D
:101064003C02002074010020984C0020F8B50E4F7B
:101074003D7875B9FFF774FE0C4C0D4E361B3611D6
:10108400B54207DB0020FFF7D1FE0028FAD1012387
:101094003B70F8BD63685B791BB1236820461B690C
:1010A400984701351034EBE77B1400207CE70000FF
:1010B4008CE7000007B504380190D0E8EF3F5A1ED2
:1010C400C0E8E12F0029F8D1012B03D101A903487D
:1010D40008F0DCFA03B05DF804FB00BFB4010020A3
:1010E400202302491A4602480CF018BD783B002020
:1010F40040020020002337B5094D01930120FFF77A
:1011040095FE0446FFF7F8FD002201A9284608F0E1
:1011140091FA08B1002CF1D1019803B030BD00BFA1
:101124004002002007B5002201A90648019208F0F8
:1011340081FA10B1FFF7DEFF0190019803B05DF86A
:1011440004FB00BF40020020F0B5047A467A85B063
:1011540014F0010401904FEA16160ED0019B1A7A7E
:10116400920704D55B69184C0393039B2BBB01A91D
:10117400154808F08BFA05B0F0BD002EEED02546D8
:1011840017E029460AF0B7FA0746FFF741FE78B19F
:101194003CB9019B314618690AF0D0F9044600288D
:1011A400DCD024FA05F3DB0702D53846FFF782FFCB
:1011B4000135AE420198E4D8D0E71D6803A9204662
:1011C40008F064FA0395D0E7400200200EB403B59A
:1011D40003AB53F8042B01460448019309F0E0FBE8
:1011E400002002B05DF804EB03B07047FBBA0000C6
:1011F4002DE9F04F11F0020485B0064690469DF8A3
:10120400387001F0010901F0080507D011F0440F0E
:1012140037D11A463249FFF7D9FF0446B9F1000F16
:101224000AD0304B304953F82720304B3046002A3F
:1012340008BF1A46FFF7CAFF3DB12D4B2D4953F89D
:1012440027203046FFF7C2FF0546B8F1000F44D00F
:10125400012303FA07F7284B17F0100F274F18BF85
:101264001F46BDF840109DF83C00FFF751FD39467C
:1012740002463046FFF7AAFF2844204405B0BDE8E3
:10128400F08F1F4A116831B31E4A4FF4616E14681F
:101294004FF47A7CB3FBF4F3B3FBF1F4B4FBFEF24A
:1012A4000EFB124E01FB14340CFB04F4B4FBF1FBF3
:1012B4004FF03C0A01FB1B440CFB04F4BEFBFAF3A5
:1012C400B4FBF1F1CDE901B10AFB13E100910E4940
:1012D400FFF77CFFA1E708469FE7084FC1E700BF7F
:1012E40054F4000098E9000094FC000046F4000067
:1012F400ACE9000079F4000050F400004BF4000065
:101304005C020020600200205DF4000038B50C4649
:10131400E107054603D5084A0849FFF757FFE206E7
:1013240008D4A3062846BDE838404CBF0449054903
:10133400FFF74CBF38BD00BF46F4000094FC00002A
:1013440054F1000037F400002DE9F0479846089B5B
:101354000446DD060E46174605D499064CBF2949B6
:101364002949FFF733FF0025DFF8A49045452ADB20
:101374000025DFF8A080DFF8A090DFF894A0BD423C
:101384002ED2725D49462046FFF720FF0135102D0D
:101394001FD11E492046FFF719FF0025DFF8708092
:1013A400DFF87890AF4227D9725D4946A2F1200355
:1013B4005F2B28BF2E222046FFF708FF0135102D92
:1013C40013D1BDE8F08749462046FFF7FFFE0135FB
:1013D400CCE76A07D3D151462046FFF7F7FECEE7A4
:1013E40041462046FFF7F2FED0E76B07DAD14146CB
:1013F4002046FFF7EBFED5E741462046FFF7E6FE21
:10140400DCE700BF54F1000037F4000014F40000DE
:10141400B00C0100AE0C01000EF4000016F4000044
:101424002DE9F0478B7A174613F007048AB0054676
:101434000E460A7A1CD0D2434989C3F3C2038909F0
:101444000291CDE9004302F00102F3683946FFF747
:10145400CFFE8146337ADA070CD4294630460AF0A7
:10146400E0F94CB3224639462846FFF74FFF23E004
:10147400A146EFE734BB2746EB6806AA0693A968A2
:101484003B4630460AF0B9F9069A6B681A603AB1DD
:10149400AB68134413F8014CA4F10A035C425C41A9
:1014A40028460AF01BFB069B1F44002BE4D11CB109
:1014B40014492846FFF78AFE28460AF00FFB0AB0B3
:1014C400BDE8F08730460AF042F90F490246284643
:1014D400FFF77CFE4FF000084FF0100A05AA4346C0
:1014E40006A93046CDF814A00AF087F9059A002A17
:1014F400B8D04B46009706A92846FFF725FF059B61
:101504009844EBE719F4000094FC000073B5D0E9AB
:1015140000435D6842F20F738B4228BF0B460D4AAD
:101524000521684601F09AFF06462B4620460B2209
:1015340009490AF069F92B463246694620460AF001
:1015440063F92B461B22054920460AF05DF902B0D7
:1015540070BD00BF6D0A01003AF400001BF40000E6
:1015640001230021074A10B5074C1360A04204D898
:1015740001B11360054B186010BD40085B000121E8
:10158400F4E700BF6002002040420F005C0200202C
:1015940001480AF0A3BA00BFD8E900000148FFF7E8
:1015A400B5BF00BFD8E9000008B5034807F0AEFE98
:1015B400024B586008BD00BF9FF400006C0200207D
:1015C40010B50C4608460AF08AF8214604480F2252
:1015D400FFF726FF2046BDE810400AF0A9B800BF77
:1015E400D8E900000A2838B50446074D04D1286814
:1015F40043680D215B68984728684368E1B25B68DB
:101604009847204638BD00BF7802002010B5044C2E
:10161400204601F01DFF2046BDE81040FFF7ECB85E
:10162400E915000008B5044807F070FE034B186084
:10163400FFF7ECFF002008BD9FF4000078020020B3
:1016440008B5114B1A686AB14FF05022D2F804233E
:10165400D10707D500220D481A608368597A09B961
:101664000AF0BCFA0A4B1A686AB14FF05022D2F859
:101674000423920707D5002201211A600348BDE81C
:1016840008400AF0ABBA08BD005100509C4B002042
:1016940004510050014803F0A9B800BF1CEA00003F
:1016A40010B5017D0446A1B1022913D001234FF0E6
:1016B4000002134863F30702124B1B1ADB0812489B
:1016C40063F38F1209F067FF204606F063FE0020E3
:1016D40010BD012104F108000BF08DFC204600F040
:1016E400B7FA011EF0DA01234FF00002044863F355
:1016F4000702044B1B1ADB0863F38F120348E1E76C
:10170400DCE6000004E70000ADF50000BDF50000D4
:101714002DE9F34180460C4618F8011B06460229C0
:1017240004F1FF336DD0042940F0B880012B10D8A8
:1017340001234FF00001634A63F30701624B6348DE
:101744009B1ADB0863F38F1109F018FF02B0BDE8A0
:10175400F08143783E2B1CD1C778BB1E5F425F41AA
:101764000222414601A80AF098FB9DF80530033C8B
:101774009C4206F103060ED001234FF00001514AAA
:1017840063F30701504B52489B1ADB0863F38F1134
:10179400DAE70027E4E7002239469DF8040004F064
:1017A40051F8054670B9002FD0D101234FF0000144
:1017B400444A63F30701444B46489B1ADB0863F32E
:1017C4008F11C1E700F10808022201A940460BF07D
:1017D400F9FB9DF804201A2A11D8012393403E4AAC
:1017E400134214BF012700272246314640460BF01E
:1017F400E9FB002F61D1284602F078FFA6E7002715
:10180400F2E7032B0CD801234FF000012D4A63F3B8
:1018140007012D4B31489B1ADB0863F38F1193E7C3
:101824000021032003F0D2FF054620B304224146E1
:101834000DEB02000AF031FB042205F108070DEB61
:10184400020138460BF0BEFBBDF80630053C9C4255
:101854001ED001234FF000011A4A63F307011A4B0B
:101864001F489B1ADB0863F38F1109F087FE284693
:1018740006F090FD6AE701234FF00001114A63F37B
:101884000701114B17489B1ADB0863F38F115BE7C1
:101894002246711D38460BF095FBACE701234FF04F
:1018A4000002084863F30702074B1B1ADB0863F3C3
:1018B4008F120D4809F06FFE48E7284602F040FFFA
:1018C40044E700BFDCE6000004E70000DDF40000AC
:1018D400FEF4000022F5000000C008043EF50000FC
:1018E40077F500005DF5000099F50000014B1970D3
:1018F400704700BF000007201FB5094B0293094B36
:10190400CDE900230A464FF0FF330146064807F0AD
:10191400F1FA064805B05DF804EB08F0B1BA00BF6F
:101924004DBD000051BD000004030020B04C002058
:101934000F4B13B5186800234268009314681946C6
:101944001A46A047014680B101234FF0000209481E
:1019540063F30702084B1B1ADB08084863F38F1272
:1019640002B0BDE8104009F016BE02B010BD00BFC1
:1019740048030020DCE600000CE700005EF70000EE
:1019840038B5064D064C4FF0FF31284608F0A4FA4E
:101994000028F8D120680BF05CFFF4E7C84C002065
:1019A40014040020014808F06BBA00BFC84C0020A2
:1019B40070B5844B88B0069306238DF81C30002341
:1019C4006FF00702CDE90433CDE90232CDE90033EB
:1019D4004FF480627C4B7D497D4808F0F5FA06A8F7
:1019E40007F018FA044688B101234FF00002794940
:1019F40063F30702784B5B1ADB080146774863F30D
:101A04008F1209F0C8FD204608B070BD744807F075
:101A1400E1F9044668B101234FF000026D4963F314
:101A240007026D4B5B1ADB08014663F38F126D48A6
:101A3400E7E76D4D6D492A466D480BF065FC044699
:101A440068B101234FF00002624963F30702624B5D
:101A54005B1ADB08014663F38F126648D1E72B68F3
:101A6400654D9A688AB901234FF00001594A63F31E
:101A74000701594B28609B1ADB08604863F38F11F8
:101A840009F07CFD6FF01204BDE70C332B605C4859
:101A940007F03CFC5B4B186060B901234FF0000178
:101AA4004C4A63F307014C4B57489B1ADB0863F31A
:101AB4008F11E5E7554807F029FC60B901234FF081
:101AC4000001444A63F30701434B51489B1ADB0866
:101AD40063F38F11D4E7436822465B684D49984706
:101AE400B82007F08DFE064618B1B82221460AF048
:101AF400FEF9494C266086B901234FF00001354AAE
:101B040063F30701344B45489B1ADB0863F38F11D9
:101B140009F034FD6FF00B0475E7B82007F070FE90
:101B2400064618B1B82200210AF0E1F9666066B9E8
:101B340001234FF00001274A63F30701264B38487D
:101B44009B1ADB0863F38F11E2E7364B364A2468AD
:101B54005A6004229A601A6200221C60334C1021DD
:101B6400A261022228689E615861D862A26230484C
:101B7400304A314E9981D861998422622F494FF4B9
:101B8400F8423046E3620BF0BDFF009621462B6815
:101B94002B4A2C4807F0D2FA044668B101234FF0CF
:101BA40000020C4963F307020B4B5B1ADB08014686
:101BB40063F38F12244824E74FF0FF31234808F0E1
:101BC4008BF920E7698E0000851900009819002020
:101BD40094020020DCE600000CE70000E9F50000B8
:101BE400644900200CF600000003002037F60000D2
:101BF40041F6000049F600004403002066F60000A8
:101C04004A0B01004803002092F60000B5F60000DC
:101C1400BBF60000A919000014040020DEF6000041
:101C240007F70000D8030020007C072000000020F4
:101C34000078072030EA0000080400200004072090
:101C4400FD1800004C03002030F70000B04C0020C9
:101C540013B5836881890748826A541C07D001241C
:101C6400CDE90014416A07F033F902B010BD02480F
:101C7400FBE700BF0403002029F8FFFF00220D4BFF
:101C8400C3F840214FF02002EFF3118182F3118851
:101C9400BFF36F8F084AD3F804051368C01A20F005
:101CA4007F400344136081F31188BFF36F8F08F002
:101CB40043BB00BF005001501C04002070B5154800
:101CC40007F024FB10B3436801211B6898470024E4
:101CD40001264FF480334FF400120F4D3146C5F8FE
:101CE4000845C5F84065C5F804330C4B15201C6045
:101CF4000B4BC3F88021224600F012F9152000F0A6
:101D0400FFF82046074B1E602E6070BD4FF0FF3079
:101D1400FBE700BFBDF400000050015040510150EA
:101D240000E100E00850015070B5254CB0F1FF3FD0
:101D340008BF20464FF02003EFF3118583F3118889
:101D4400BFF36F8F1F4BD3F804151F4B1B68CA1AC0
:101D540022F07F4612021AD4421E22EAE272A24202
:101D6400A8BF2246701C1044A04294BF181818192A
:101D7400411A21F07F41134A20F07F430229C2F81F
:101D8400403506D985F31188BFF36F8F70BD0022EB
:101D9400E8E7D2F804350D49C31A23F07F435C1EEB
:101DA4008C4205D94FF40012094BC3F80021E9E72E
:101DB400012B02BF023020F07F40C2F84005E1E76A
:101DC400FEFFFF00005001501C040020FEFF7F00B6
:101DD40000E100E04FF02002EFF3118382F3118859
:101DE400BFF36F8F064AD2F80405064A1268801AB8
:101DF40020F07F4083F31188BFF36F8F704700BFDB
:101E0400005001501C0400204FF02003EFF3118216
:101E140083F31188BFF36F8F0649074B0868D3F823
:101E2400043582F31188BFF36F8F1B1A23F07F43AD
:101E3400184470471C040020005001500448816875
:101E4400406A884203D003494FF080520A607047C9
:101E5400D011002004ED00E0094A0A49936809689A
:101E64005866996608494B6843F080534B600023D9
:101E740083F31188BFF36F8F9368986E704700BF28
:101E8400D0110020CCEE000000ED00E012498A6879
:101E94004FF028001044EFF3098C80E8F01F202055
:101EA40080F31188BFF36F8F0C4F4FF000664A6ABE
:101EB4008A603E60506E0023536680F3118804B537
:101EC400104609F059FFBDE8044002F1280090E8EB
:101ED400F01F8CF309887047D011002004ED00E056
:101EE4001EF0040F0CBFEFF30880EFF30980816943
:101EF40011F8021C0229FFD001B509F032FF01BD1F
:101F040043B2002B08DB012200F01F0002FA00F0AC
:101F1400024A5B0942F82300704700BF00E100E079
:101F240043B2002B01F10101A8BF03F160434FEA62
:101F34004111B8BF054BC9B2ABBF03F5614300F013
:101F44000F0083F800131954704700BF14ED00E02C
:101F540073B51E460A9B05460093099B8C180CF02A
:101F640018F80B4AA4F1200323F0070322F001021E
:101F74009A61069A1E605A60079A9A60089ADA6013
:101F84004FF08072DA61AB6400236B6602B070BDFF
:101F9400B9AC0000F8B505460C4617461E4600F0DD
:101FA400B5FB0A4B3C4428469D6024F0070409F025
:101FB400E3FE304684F30988002163B681F3118877
:101FC400BFF36F8F0022002308F074FED0110020AD
:101FD400014910220A60704710ED00E0404080F390
:101FE400118830BF704700BFEFF30880EFF3098119
:101FF400724601B500F056FA01BD00BF73B506463E
:102004000C46002938D001224FF000031E4D62F324
:1020140007031E4A1E48AD1AC5F3C90565F38F139D
:10202400ADF80030D1E90123096809F0E0FA012292
:102034004FF0000362F3070365F38F13ADF800302C
:10204400D4E90423E168134809F0D1FA01234FF0DD
:10205400000263F3070265F38F12E1690E4809F089
:102064009AFA4FF00002012363F3070265F38F121B
:10207400A1690A4809F08FFA2146304602B0BDE84A
:10208400704007F069B900BF5CE70000DCE60000BF
:1020940086F70000B5F70000E4F70000F3F700004E
:1020A40030BFFFF7FDBF00BF08B5084B084A23F057
:1020B4007F039360BFF34F8FBFF36F8F07F0CCF9AB
:1020C40007F0D4F900F0F0FA07F00EFA000000006F
:1020D40000ED00E001B572B60B4A106A00281EBF7D
:1020E400002111620BF018FD62B6EFF30580A0F138
:1020F40010004FEAC0000549014409C99847BDE8EA
:102104000140034908470000D0110020B8E3000053
:10211400411E000008F0F4FD202080F311880848D7
:102124004FF40061401880F30988EFF31480022112
:10213400084380F31488BFF36F8FFFF7B5FF0000E7
:10214400D82A002001234FF0000110B563F30701E2
:102154003A4C3B4B3B48E41AC4F3C90464F38F1173
:1021640009F00CFA384B9B6A990109D54FF000012C
:10217400012363F3070164F38F11344809F0FEF976
:10218400314B9B6ADA0109D54FF00001012363F357
:10219400070164F38F112E4809F0F0F92A4B9B6A6A
:1021A400DB0209D54FF00001012363F3070164F357
:1021B4008F11284809F0E2F9234B9B6A180309D5CB
:1021C4004FF00001012363F3070164F38F112248E8
:1021D40009F0D4F91C4B9B6A590309D54FF000014F
:1021E400012363F3070164F38F111C4809F0C6F956
:1021F400154B9B6A9A0309D54FF00001012363F341
:10220400070164F38F11164809F0B8F90E4B9B6A65
:10221400DB0309D54FF00001012363F3070164F3E5
:102224008F11104809F0AAF9074A0020936A6FEA4F
:1022340003436FEA1343936210BD00BF5CE70000E1
:10224400DCE6000081F9000000ED00E099F90000EF
:10225400ACF90000C6F90000F0F900000EFA000025
:1022640033FA00004DFA0000F8B501230E464FF092
:102274000001374C63F30701364B0746E41AC4F3F5
:10228400C90464F38F11344809F078F9334B9B6A1D
:10229400D90609D54FF00001012363F3070164F364
:1022A4008F112F4809F06AF92C4B9B6A1A0709D53C
:1022B4004FF00001012363F3070164F38F112948F0
:1022C40009F05CF9254DAB6A9B071CD501234FF03F
:1022D400000163F3070164F38F11234809F04EF9F9
:1022E400696BAB6A18060ED54FF00002012363F345
:1022F400070264F38F121D4809F04DF91FB1AB6A50
:1023040023F08003AB62154B9B6ADA0709D54FF0C3
:102314000001012363F3070164F38F11144809F0EA
:102324002DF90E4B9B6A9B0609D54FF00001012342
:1023340063F3070164F38F110E4809F01FF90020BD
:10234400064B9A6A9A6A42F0FF029A623070F8BDAC
:102354005CE70000DCE60000A9F8000000ED00E006
:10236400BFF80000F2F8000005F900001DF90000B4
:1023740033F9000052F90000F8B501230E464FF07E
:1023840000013D4C63F307013C4B0746E41AC4F3D8
:10239400C90464F38F113A4809F0F0F8394B9B6A89
:1023A400D90409D54FF00001012363F3070164F355
:1023B4008F11354809F0E2F8324B9B6A1A0509D5AA
:1023C4004FF00001012363F3070164F38F112F48D9
:1023D40009F0D4F82B4DAB6A9B051CD501234FF0B3
:1023E400000163F3070164F38F11294809F0C6F86B
:1023F400A96BAB6A18040ED54FF00002012363F3F6
:10240400070264F38F12234809F0C5F81FB1AB6AC1
:1024140023F40043AB621B4B9B6A590509D54FF06B
:102424000001012363F3070164F38F111A4809F0D3
:10243400A5F8144B9A6AD20511D54FF00001012377
:10244400164863F3070164F38F1109F097F800202D
:102454000C4A936A43F47F4393623070F8BD9B6ADD
:102464009B04F4D54FF00001012363F3070164F3E7
:102474008F110B48E9E700BF5CE70000DCE60000D1
:1024840021F8000000ED00E037F80000F2F8000049
:1024940048F8000061F8000076F8000091F80000A8
:1024A40052F900002DE9F041644B8AB05E680025C2
:1024B400C6F3080485F31188BFF36F8F02F07F43DE
:1024C400B3F17F4F11D102F00C03082B0FD101237C
:1024D4004FF000015A4A63F307015A4B5A489B1ABA
:1024E400DB0863F38F1109F049F82F4604E0120763
:1024F4004EBF0F460746012500238DF80730E31E23
:10250400092B7FD8DFE803F005696D4C7E7E7E7E63
:102514007E7101234FF000014FF0000863F30701BF
:10252400484E474B4948F61AC6F3C90666F38F115D
:1025340009F024F8414B8DF80780DC6A14F002049A
:102544000BD04FF000010123414863F3070166F308
:102554008F1109F013F8002425E0DB6A5B0022D513
:1025640001234FF0000163F3070166F38F1139482B
:1025740009F004F8384B1B782BB101200DF1070149
:10258400FFF772FE0EE0354B1B782BB101200DF1E5
:102594000701FFF7F1FE05E0314B1B889BB213B135
:1025A400FFF7D0FD04469DF807309BB92022394639
:1025B40002A809F072FC099B002D3AD0C3F308026B
:1025C40022B96FEA53236FEA4323099302A92046F1
:1025D400FFF714FD0AB0BDE8F0810DF107010020FA
:1025E400CEE70DF107010020D3E701234FF00001EE
:1025F400134A63F30701134B1A489B1ADB0863F36E
:102604008F11A6E701224FF000030E4962F307037E
:102614000B4A1548891AC90816F4F87F61F38F1319
:10262400A4F11002114918BF0146114808F0C7FF70
:1026340091E723F4FF7323F00103C6E700ED00E004
:10264400DCE600005CE7000078FA0000A3FA000072
:10265400BAFA0000DBFA000028ED00E029ED00E002
:102664002AED00E0FAFA000045FB000030FB000010
:102674005EFB0000024A536943F010035361704744
:1026840000ED00E0BFF34F8F0549064BCA6802F422
:10269400E0621343CB60BFF34F8F00BFFDE700BF81
:1026A40000ED00E00400FA05002320210348C218CD
:1026B4000133452B82F80013F9D1704700E100E0A3
:1026C40038B505464FF02003EFF3118483F31188E6
:1026D400BFF36F8F07F03AFA0A4B9B68AB420BD1FA
:1026E400094B5A68C2F3080212B92046FFF7B4FB3B
:1026F4005A6842F080525A602046BDE838400BF0D8
:102704007FBB00BFD011002000ED00E010B50E4BE0
:1027140088B002930D4B0E4C03930E4B0E4A049358
:1027240002AB019301A82346012100F051F90023D3
:1027340007930A4B0121E41A05A80593069400F0B7
:1027440051F908B010BD00BF0000002000000000D7
:102754000000072006000100000000200000002007
:1027640010B50B680C7A23F01F0204F01F031A4300
:10277400CB68640923F01F03044943EA440343F08C
:1027840001038860CA600B6110BD00BF90ED00E0DA
:1027940008B54FF000020123074963F30702074B12
:1027A4005B1ADB08014663F38F12054808F0F3FE59
:1027B4006FF0150008BD00BFDCE6000044E7000030
:1027C400BBFB00002DE9F04F07468846144600265F
:1027D4005E4D85B046453DDA57F82630D3F804906F
:1027E400B9F1000F59D0B9F11F0F22D919F01F0FF9
:1027F4001FD1D3F800A01AF01F0F1AD1504609F0C8
:10280400E6FA834609EB0A00013809F0E0FA834549
:1028140024D06FF0150B01234FF000024C4963F3F1
:1028240007024C4B4C485B1ADB0863F38F12594682
:102834000CE001234FF00002454963F30702454BC6
:1028440046485B1A3146DB0863F38F1208F0A3FE97
:102854006FF01504204605B0BDE8F08F1BF1160F8C
:10286400D9D0631E5B45D6DBC5F808B0E868C5F867
:1028740008B02B6957F8261020F01F0043F01F0AF8
:10288400D1E900321A44984202F1FF3918D1CA45FD
:1028940005D15FFA8BF009F077FA01369AE7C5F8AB
:1028A40008B0EB6822F01F0203F01F031A43EA602A
:1028B400E0B209F069FA10F1160FC9D0441CECE734
:1028C400C5F808B02A69013B23F01F0302F01F0278
:1028D4001343CA45E0B22B61EBD009F055FA10F16D
:1028E400160FB5D0C5F808B0EA689DF808300AF1AB
:1028F400FF3A62F304038DF808302B699DF8082031
:102904005B0863F3471257F826308DF80820D3E9A3
:1029140000130B44009323F01F03441C5344A3EB04
:102924000903E4B223F01F030F2C039308D92046B4
:10293400FFF72EFF10F1160F044689D00134ACE7DF
:1029440069462046FFF70CFFF8E700BF90ED00E072
:10295400DCE6000044E7000098FB000075FB000083
:102964000522034B5A60BFF34F8FBFF36F8F70473D
:1029740090ED00E0BFF35F8F0022014B5A60704777
:1029840090ED00E070B50E4D2E68102E15D8002481
:10299400FFF7F0FF0B4B0C4A1A63A64205D10B4B11
:1029A4001E70FFF7DDFF002070BD6968204601EB53
:1029B4000411FFF7D5FE0134EFE74FF0FF30F3E7E2
:1029C40054EA000090ED00E0AAFF44007D140020CA
:1029D40010B5034C2278FFF7F5FE207010BD00BF40
:1029E4007D1400202DE9F74F254C8A4680460027A8
:1029F400A1464FF0140B234D57451ADAD8F804308A
:102A04000193002B36D0D8F800100846009109F045
:102A1400DEF9DDE9001306465818013809F0D7F944
:102A24008642194A08D014235F436FF0150349F80E
:102A3400073003B0BDE8F08F16F1160F2660F8D00A
:102A44001378B342F5DD0BFB0793AE60AE60E86824
:102A5400197B60F3040119732969187B490861F330
:102A640047101873EB6823F01F0363602B6923F08E
:102A74001F0323610137143408F10C08BCE700BFBD
:102A84002004002090ED00E07D14002070B50C4B74
:102A94000E461C780546234600210A4A0F2B0BDDFF
:102AA400094951F8040BFFF75BFE224631462846DC
:102AB400BDE87040FFF786BE936011610133EDE716
:102AC4007D14002090ED00E0200400202DE9F04F5B
:102AD4001E460023A3B0CDE902010193134613F867
:102AE400010B089358B1252800F085800399029BB7
:102AF4009847013040F017844FF0FF330193019859
:102B040023B0BDE8F08F232C6CD061D8002CF6D014
:102B1400202C0E9B08BF01230E93CDF82080DDF8F6
:102B24002080B74818F8014B214609F076F90028AF
:102B3400E9D12A2C66D156F8043B98F80040002BC2
:102B44000993BFBF5B42099301230F93089B03F1D1
:102B540002082E2C7BD198F800302A2B74D156F819
:102B6400045B08F1010818F8014B2146A5482746E3
:102B740009F053F900286DD0434613F8014B682F30
:102B8400089307D1682C05D1482708F1020398F867
:102B940001400893672C7BD8652C80F03581472C45
:102BA4005CD8452C80F03081002CA8D0252C00F076
:102BB400B68303992520029B984701309CD0039942
:102BC4002046029B9847013096D0019B0233ACE328
:102BD4002D2C0AD0302C0BD02B2C0B9B08BF01239F
:102BE4000B939AE74FF0010B97E701230F9394E7B8
:102BF40001230A9391E700230A930E930B930F93F7
:102C04009B468CE7A4F13003092B0990A1D80A2232
:102C1400DDF8208018F8014BA4F13003092B98D873
:102C2400099B02FB0344A4F13003CDE90883EFE7D9
:102C3400904601FB0535303D424612F8013BA3F1B5
:102C440030000928F4D98EE700250A21F4E74FF073
:102C5400FF358AE7CDF8208007469BE7632C59D0DF
:102C640020D8582CA5D16F2C06F10409316840F006
:102C74002883BBF1000F00F0178330238DF86C30EC
:102C8400002940F01B838DF86D100F46012625E0C6
:102C9400702C00F0F58227D86E2C00F0DE82E2D88A
:102CA400692C86D1376806F10409002F80F29A80D6
:102CB4002D2379428DF86C300DF16D0630460A22D1
:102CC40009F037F90B9B06441BA8361A002B40F079
:102CD4002F830E9B002B40F02B83FF0F002D21DA56
:102CE4000025AB46A846E1E0752CBCD0782CBAD0C0
:102CF400732C7FF45EAFB146002DB8BF6FF0004572
:102D0400002659F8043BB54240F0C9822E460025FE
:102D14002F4608E00027B1463D46012659F8043BFA
:102D24008DF86C301BABEA190025AB46A846921B04
:102D340022EAE27291190691099990190C1A0F99D5
:102D440011B9002C00F3118303EB070A534540F03B
:102D5400118312F1FF3280F01B83F61BB8F1000FD0
:102D640011D09AF800000AEB0607A0F13003092BF2
:102D7400A7EB0A0640F21783474617F1FF3780F0A6
:102D84001B83A6EB0806BBF1000F15D00AEB060760
:102D94001AF8018B03994046029B984701303FF48F
:102DA400ABAEB8F12E0FA7EB0A06F1D15F46002FA8
:102DB40000F30B83A6EB0B0695B19AF800000AEB1F
:102DC4000607A0F13003092BA7EB0A0640F208839B
:102DD4002E2800F005832F46002F00F30A83761B6C
:102DE400564419E30B9B23B12B238DF86C303946E1
:102DF40062E70E9B0BB12023F7E739461BAE5DE774
:102E0400E1FB0000E7FB000006F1070929F00709D0
:102E1400F9E80223D80240EA5250D60220F00040DA
:102E2400002AC3F30A510496059073F10003DDE907
:102E34000467CDE9166741DA2D238DF86C300DF166
:102E44006D0740F2FF73994253D1DDE904120A433E
:102E5400A4F1410407F1030340D1192C38D84922C5
:102E64003A704E227A7046220025AB46A8461BAE25
:102E7400BA70FD709B1B0B9A002A40F0EC810E9AED
:102E8400002A40F0E8819DF86C70A7F12D025742AA
:102E9400574105EB0806334403EB0B0622AB3B44D6
:102EA40013F81C3C303B092B00F246820A9B002B92
:102EB40000F04582099B9A1B1BAB39E70B9B0BB1B6
:102EC4002B23BAE70E9B0BB12023B6E71BAFB8E761
:102ED40069223A706E227A706622C5E7192C99BF6E
:102EE4004E2241216E22612194BF3A703A7079706A
:102EF400BAE7049B05980B431093CB170343462C66
:102F0400119308BF6624DDE91023134300F01181F7
:102F1400002900F09B800026179BA1F2FE3843F0A5
:102F24000043179318F1020FC0F2A480B8F1000F08
:102F340000F3DD8016A808F1010809F01CF8B8F1C7
:102F4400040FF7D1002D04F0DF03B8BF0625472B8B
:102F540040F0F880F11C02DBB54280F2ED80023CC7
:102F6400E4B2002D00F0F480013DBBF1000F40F00D
:102F7400EF80002DD4BF4FF0000A4FF0010A662CF9
:102F840040F0E88015EB060840F1EC80102366243D
:102F94004FF00008159300224FF00063CDE9182389
:102FA40018F1FF3880F0E080169B189A19999B1845
:102FB400179A41EB0202CDE9163202F070431293E4
:102FC40000231393DDE91223134306D016A808F057
:102FD400E3FF16A808F0CFFF0136662C40F0E1802D
:102FE400002E40F3C880159B002B07DD15A916A8F9
:102FF40008F0FDFF013E07F8010BF4D1B0463B4653
:103004000026BBF1000F01D1002D15DD2E2203F89F
:10301400012B002E00F0C080002D40F3BF80C6F1CC
:10302400000BAB45A8BFAB46A5EB0B05002D03DD9C
:10303400159A002A00F3A680BAF1000F40F0C6806A
:1030440000221BAE1A709B1B15E70139049BDB1889
:103054000493059B5B410593DDE90423002A73F186
:103064000003F2DADDE90423CDE9162353E716A8B9
:1030740008F081FFDDE916EC00230021CDF830C013
:103084000D93BB48DDE90C23994208BF904208F137
:103094000108ECD30520AEFB0023CDE90623079BF2
:1030A400013E00FB0C334FF0000C0793DDE90623CF
:1030B400CDE91623002100236FF0004207988B42CC
:1030C40008BF824208D2BCF1000F3FF42BAFDDE908
:1030D4000623CDE9162325E7069B08F1FF38DB1804
:1030E4000693079B4FF0010C5B410793E2E716A898
:1030F40008F052FFDDE916AE4FF0000C08F1FF387E
:103104000136002300216FF00040994208BF70454A
:1031140006D2BCF1000F3FF409AFCDE916AE05E7C6
:103124001AEB0A0A4EEB0E0E08F1FF384FF0010CB1
:10313400E7E70026B046FDE6AD1BBBF1000F04D166
:10314400662416E74FF0000A19E74FF0000A19E762
:103154004FF0000A05F10108102398451593A8BF04
:10316400984618E76624F7E718A808F015FF18A88A
:1031740008F001FF14E73B4630224FF0000803F843
:10318400012B3EE715A916A8069308F030FF069B0D
:10319400013D03F8010B49E7B34647E74FF0000B45
:1031A4004AE715A916A808F022FF3028387018BF7E
:1031B40006F1FF36BBF1000F38D1002D36DC7B1C45
:1031C400BAF1000F44D04FF0000BD8461A4613F85A
:1031D400011D3029FAD02E2918BF1346002504F00A
:1031E400DF02452A7FF42CAF002EB4BF2D222B2200
:1031F4001946B8BF7642632E01F8024B5A7008DDB7
:10320400642096FBF0F200FB126602F13004D91C34
:103214009C700A2096FBF0F20B4600FB126602F14A
:103224003004303603F8024B4E7009E72E22BB1CE3
:103234007A70002DC4DD159A002AC1DD15A916A8DF
:10324400069308F0D4FE069B013D03F8010BF0E75A
:10325400D346D046C3E701271BE6B146682F59F889
:10326400043B05D001DC482F07D0019A1A6001E025
:10327400019A1A804E46089A30E4019A1A70F9E7C6
:10328400B14647F63003102259F8041B0DF16E00C5
:10329400ADF86C3008F04DFE0227861C1EE59A5DE1
:1032A400002A47D001362EE51BAC0822204608F040
:1032B40040FE1BAEA61B064400270FE50DF16D046E
:1032C400F3E7752C05D10A221BA808F032FE064646
:1032D400F2E7BBF1000F12D047F630030DF16E0890
:1032E400ADF86C301022404608F023FE582C09D06B
:1032F4001BAEA8EB060606444FEA4B07EEE40DF1BD
:103304006C08EFE71BAA1378A3F1610119299CBF8C
:10331400203B137012F8013B002BF4D1E8E703992A
:103324002046FFF7E4BB019B01330193B146A1E7BB
:103334000127D3E41546EBE41BAB0022FAE41BABF4
:103344000A9AF7E4CDE909320399029B20209847B1
:10335400DDE9093201303FF4CFAB1AF1FF3AF1D283
:103364000199214401915446EEE4A246F5E700BFD9
:103374003233333313F8010B03990993029B0A92F6
:103384009847DDE9093201307FF4E0ACFFF7B4BBC4
:1033940003993020029B099298470130099A7FF4DF
:1033A400D8ACFFF7A9BBDDE90231984701303FF4FF
:1033B400A3AB1AF8010FD8E403993020029B984775
:1033C40001307FF4DAACFFF797BB03993020029BFE
:1033D4009847013007F1FF377FF4E9ACFFF78CBB66
:1033E400DDE90231984701303FF486AB1AF8010F4A
:1033F400E7E403993020029B9847013007F1FF3737
:103404007FF4EAACFFF778BB03991AF8010B029B2F
:10341400984701303FF470ABA6EB0A03002BF3DCB2
:10342400019B069A002C134401937FF723AF254692
:1034340006E003992020029B984701303FF45CABDF
:1034440015F1FF35F5D2019B2344019312E700BF28
:10345400014B1860704700BFBC4900200CB41FB575
:1034640009B90DF10300CDE9020107AB069A02A9DF
:1034740005480193FFF72AFB0022029B1A7005B04E
:103484005DF804EB02B0704727C000004FF0805293
:10349400094B0020C3F86422C3F86822C3F8282229
:1034A400C3F830221022054BC3F840244FF05023B8
:1034B400C3F81406704700BF002584500030005044
:1034C40040290E4B28BF402170B51D460C4C4618B0
:1034D400B04203F1020304D1002305F81130074878
:1034E40070BD02781209A25C03F8022C10F8012BBB
:1034F40002F00F02A25C03F8012CE9E77E1400201D
:1035040014FC000030B503788BB0044607AD032BE0
:1035140021D8DFE803F0021A1C1E1249284608F0DD
:103524005FFC637805950493A3780F4A0393E378CB
:103534001E21029323790D48019363790093A379A3
:1035440007F0ABFB09480BB030BD0949E6E7094970
:10355400E4E70949E2E7094A0A21284607F09DFB06
:10356400DFE700BFE4EE000006EF0000FF140020D8
:10357400EBEE0000F2EE0000FCEE00003D03010063
:10358400F0B402780446012A0B4617D01AB1022A75
:103594002CD0F0BC70470D46174A02F110072E4696
:1035A40010685168083203C6BA423546F7D112781A
:1035B400327062885A73120A9A73EAE70D460E4A09
:1035C40002F110072E4610685168083203C6BA4249
:1035D4003546F7D1127832706268C2F307215A7304
:1035E400120CDA73120A99731A74D2E70146F0BC0A
:1035F4001122184608F051BC25FC000070B506469F
:103604008CB00A4D01AC0FCD0FC40FCD0FC495E89B
:10361400070084E807000A2E9DBF0CAB03EB860667
:1036240056F82C0C02480CB070BD00BFB8E700007F
:103634009304010002234FF00002816863F3070240
:103644000448054B09781B1ADB0863F38F120348FF
:1036540007F0A1BFDCE60000FCE60000CFFF00009D
:10366400836810B51C88204602F03EFD80B9012312
:103674004FF00002084963F30702084B08485B1A3D
:10368400DB082146BDE8104063F38F1207F083BFC7
:10369400BDE8104008F05CBEDCE60000FCE600007B
:1036A400FA02010010B502234FF000040A4A63F342
:1036B40007040A4B81899B1ADB08806863F38F1423
:1036C400FFF7FEFEFDF772FB2246BDE810400146FF
:1036D400034807F060BF00BFDCE60000FCE6000022
:1036E400BC0201002DE9F043064685B090790F46EF
:1036F400154604F0B3FDDFF8E88080451AD00223B4
:103704004FF00004314A63F30704314BA879D21A0D
:10371400D20862F38F140096019004F09FFD2346B3
:10372400CDE90208042269462A4807F07BFF05B068
:10373400BDE8F083284604F097FD4FF00C08264CB2
:1037440008FB00404388B34215D002234FF0000920
:103754001E4A63F307091E4B2846D21AD20862F3A5
:103764008F1904F081FD08FB00404B464288314626
:103774001A4807F024FF284604F076FD0C2606FBC1
:10378400004043685BB157B9284604F06DFD06FB61
:10379400004043681A7AD3E9000108F0AFFC2846D8
:1037A40004F062FD0C2606FB00408368002BBED0AB
:1037B400284604F059FD70432754284604F054FD6C
:1037C40006FB0040806806F05BFBB0E7FCE6000007
:1037D400DCE6000067FF0000340400209CFF0000CA
:1037E400A44D002073B50446084602EBC3031178C8
:1037F400A1421ED008329A42F9D102234FF00005AB
:10380400194A63F30705194B86899B1ADB0831466D
:10381400806863F38F15FFF753FEFDF7C7FAADF821
:103824000050034632462146114807F0E0FE02B03C
:1038340070BD818953788B4211D901224FF0000366
:10384400094862F30703094A121AD20862F38F1374
:103854002246084802B0BDE8704007F0B0BE536885
:1038640002B0BDE870401847DCE60000FCE600004A
:1038740045FF000023FF000010B501210446083075
:1038840009F0CAFB2146BDE810400723014A00782D
:10389400FFF7A8BF7CEA000007B5042102F05CFC36
:1038A40060B9084B032118689A889B790090684690
:1038B400ADF804208DF8063002F04EFC03B05DF83C
:1038C40004FB00BFE4E70000F8B5074600250A4EF4
:1038D400F379ECB2A34202D86FF0010409E0C4EB1F
:1038E400C40107223144384608F0C7FA01350028DC
:1038F400EED12046F8BD00BF384800202DE9F84F2E
:10390400504D514BDFF868B1ED1AC5F3C9054FF0BE
:10391400FF314E4809F022FB017D0446012953D0B2
:10392400032940F084808389032B0CD84FF43D7322
:10393400474A4849484807F0A3F9404080F31188B2
:103944004FF0030002DF042104F1080009F064FBD6
:10395400FF234288B0F800A0A189CAF30B008A4271
:10396400E08263750FD026F03F0343F0010363F355
:10397400070665F38F163346384807F020FE2046C5
:1039840004F008FD1DE002F0AFFB814668B927F0A2
:103994003F0343F0010363F3070765F38F173A46C8
:1039A400E18A2F4807F0F7FDE9E702F071FD4FEADD
:1039B4001A3260752146484602F038F9484608F044
:1039C400C7FC06F0E3F9A2E78389012B0CD840F683
:1039D4009D731F4A1F49204807F052F9404080F365
:1039E40011884FF0030002DF022104F1080009F0FE
:1039F40013FB027881461A2A11D80123934013EA53
:103A04000B0F0CD040F6A173114A1649124807F067
:103A140037F9404080F311884FF0030002DF03239D
:103A2400114A214699F80000FFF7DCFEA7E728F0C9
:103A34003F0343F0010363F3070865F38F1842461D
:103A44000A48AFE7FCE60000DCE60000FC48002082
:103A540095010100C9010100E2010100FF0101001B
:103A6400230201004502010014EB0000630201007F
:103A740000C0080473B58568B5F80160304602F0EB
:103A840033FB044680B901234FF00002204963F35D
:103A94000702204B20485B1ADB0863F38F12314680
:103AA40007F079FD02B070BD2B78BBB92A79EB78A9
:103AB40043EA0223A0F88630AA796B7943EA022309
:103AC400A0F88C30EB792A7A43EA0223A0F88E30EE
:103AD40002F054F8204608F03BFCE3E71A2BF9D136
:103AE400C378012BF6D1031DD3E8EF2F42F4806194
:103AF400C3E8E51F002DF7D15305EBD4D4F8883083
:103B040069460093D4F89030019302F09BFEE1E7FC
:103B1400DCE60000FCE60000FA0201002DE9F74FA4
:103B24000025514C514BD0F808A0E41AC4F3C90441
:103B34009AF800309D4202DB03B0BDE8F08F0AEB37
:103B44008503B3F80190B3F803604FF02003EFF35B
:103B5400118283F31188BFF36F8F4846019202F0FC
:103B6400C3FA019A834690B982F31188BFF36F8F29
:103B740027F03F0343F0010363F3070764F38F1750
:103B84003A4649463A4807F006FD0135D0E782F344
:103B94001188BFF36F8F00F13009B6B34FF02002E4
:103BA400EFF3118182F31188BFF36F8FDBF81C20D0
:103BB40072B1013ACBF81C2081F31188BFF36F8FE7
:103BC400584601F0D7FF013E06F05AF9B6B2E4E7D1
:103BD400DBF8142042B1DBF8180013688242CBF8FA
:103BE400143008BFCBF8183081F31188BFF36F8FFE
:103BF4007AB928F03F0242F0010262F3070864F345
:103C04008F1841461B4807F0B9FC584608F0A0FB42
:103C1400BBE74FF02001EFF3118081F31188BFF36C
:103C24006F8F0023D168CBF81C101360DBF82410CD
:103C3400D360A9B9CBE9082280F31188BFF36F8F51
:103C4400D9E8EF2F42F00103C9E8E13F0029F7D199
:103C5400D307B5D40BF12801074809F0F8FFAFE703
:103C64000A60CBF82420E7E7FCE60000DCE600006D
:103C7400620101007E0101000C12002038B504210C
:103C84000446083009F0C8F945780178224640888E
:103C9400FFF728FD25B1BDE83840024806F0F0B82A
:103CA40038BD00BFE048002038B503210446083081
:103CB40009F0B2F9A368057822461978B0F8010032
:103CC400FFF710FD25B1BDE83840024806F0D8B82A
:103CD40038BD00BFE04800202DE9F84F81468A46F0
:103CE40016484FF0FF3109F033F90026044600F17D
:103CF40008080121404609F04AF92675204604F0D7
:103D0400B3FA0C250E4F05FB0070A0F80290204674
:103D140004F0AAFA05FB00708660204604F0A4FAB9
:103D240005FB007003214660404609F045F980F820
:103D340002A0A0F800902046BDE8F88FA44D002012
:103D440034040020F0B5154687B00C4619B9FFF7C6
:103D5400C3FF0446A8B30122002168460AF0FEF816
:103D6400204604F081FA0C26174F06FB0070C0F8B9
:103D740008D0204609F01CF92146144809F00BF933
:103D840042F21071684606F0A7F8204604F06CFA77
:103D940070433B5C73B1204604F066FA70433B5CAD
:103DA400092B0CBF6FF03C056FF00405204604F0AE
:103DB400F1FA03E0002DF9D02C601D46284607B027
:103DC400F0BD6FF03605F9E7340400200C490020FB
:103DD40070B5154D062205F10A01064608F04DF8A6
:103DE4000446D8B1062142F20500FFF775FF0446E8
:103DF400B0B106223146083009F0E4F82146002229
:103E040042F20500FFF79EFF044638B90622314608
:103E140005F10A0008F041F801236B72204670BDD9
:103E24006FF03604FAE700BF384800202DE9F84F58
:103E34000C46202182469146FFF74EFF0746002894
:103E44005AD02021083009F0B7F820220021054675
:103E540008F04DF804EBC9094C4506D139465046E3
:103E6400BDE8F84F0022FFF76DBF4FF0000B266846
:103E740063689B4501D30834EEE72B787278981C6D
:103E840000EB020CBCF11F0F31781ADD0929C3F1D4
:103E94001D0200D1A2B9384604F07CFA01234FF088
:103EA4000001174A63F30701164B17489B1ADB08F6
:103EB40063F38F1107F062FB6FF01500BDE8F88F14
:103EC40008214FFA82F805EB030C013308F1010EC7
:103ED40055FA83F3C0B28CF801E0287059700130B0
:103EE4007168284407F0D9FF2B780BF1010B984433
:103EF40085F800800836BBE76FF03600DEE700BFC8
:103F0400DCE60000FCE60000930301002DE9F0412B
:103F14001E46002386B0CDE90201154602A90122FE
:103F240042F208009DF830709DF83480CDE90433E6
:103F3400FFF77CFF044610BBCDE90256B8F1000F31
:103F440011D015B10246B2421DD1144D284607F0D6
:103F540072FF09238DF8003001238DF801000195CB
:103F6400CDF810D00593029B13B9049B03B937B164
:103F7400022202A942F20900FFF758FF0446204634
:103F840006B0BDE8F08115F832100839012901D9CD
:103F94000132D8E76FF01504F1E700BFDEF100004D
:103FA40030B5012185B0054642F20A00FFF794FEC0
:103FB4000446E8B10830CDB1012109F00CF80E4BEC
:103FC4002046019305238DF80C50029304F04CF91C
:103FD4000C230A4A214603FB002001AB4360002264
:103FE40042F20A00FFF7AEFE05B030BD2946E4E711
:103FF4006FF03600F8E700BFA84800203404002022
:1040040030B5144DC0EBC00085B005440C4679B101
:1040140000230722694620460093CDF8033007F0B9
:104024002CFF28B12146284608F05AF805B030BDC7
:1040340002A808F0B1F802A8FFF746FC0028F7DA56
:1040440002A9284608F04CF8002CEFD02946204657
:10405400EAE700BF38480020024BD3F8E4301B697C
:10406400184700BF3848002038B504460D4619B932
:10407400FFF732FE054610B340F635439C4218D193
:104084002846FFF7E9FF044688B101234FF00002F8
:104094000C4963F307020C4B5B1ADB08014663F31C
:1040A4008F120A4807F077FA284604F073F920467D
:1040B40038BD2946064808F06EFF0024F7E76FF084
:1040C4003604F4E7DCE60000FCE60000FCFC00003B
:1040D4000C490020F8B50446C78A807904F0BEF87C
:1040E400214609F0B9FD314B93F82A309B065CD583
:1040F400607D02F0D9F9054680B902234FF0000231
:104104002B4963F307022B4B2B485B1ADB0863F341
:104114008F12617DBDE8F84007F03DBA837A063B13
:10412400012B12D902234FF00001214A63F3070146
:10413400204B22489B1ADB0863F38F1107F01EFA09
:104144002846BDE8F84008F003B908F001F9052154
:1041540040F63540FFF7C0FD044678B901234FF01F
:104164000001134A63F30701124B15489B1ADB083D
:1041740063F38F11BDE8F84007F000BA00F10806B8
:104184000121304608F018FF01250421057030464E
:1041940008F012FF002307808570C3702146BDE834
:1041A400F84040F63540FFF75FBFF8BD38480020BF
:1041B400DCE60000FCE600001E03010044030100ED
:1041C40070030100837A2DE9F341062B04461ED1C6
:1041D400051D0D21284607F0A7FFD8B9E37823B1C0
:1041E400544B93F87830190714D5022142F2160083
:1041F400FFF772FD064668B10221083008F0DCFEC4
:1042040023883146038042F21600FFF72DFF02B0E7
:10421400BDE8F0810C21284607F086FFDFF8148101
:10422400064620BB98F87930DA0720D5072142F2F8
:104234003200FFF751FD0746C8B10721083008F0E6
:10424400BBFE23883946038002238670C370037142
:104254004671867142F23200FFF706FFD5E8EF3F60
:1042640043F08003C5E8E23F002AD0D0F6E798F88F
:1042740078309B0614D501AA002142F22F00FFF7E3
:1042840061FDF0B101234FF000012B4A63F30701F4
:104294002A4B2B489B1ADB0863F38F1107F06EF946
:1042A400E378012BB3D10821284607F03DFF00280D
:1042B400ADD141F2883204F15001224805F052FF99
:1042C400A5E701988368B3F80180B3F8037004F09C
:1042D40061F8062142F22200FFF7FEFC064660B9AF
:1042E40001234FF00001144A63F30701134B1648EE
:1042F4009B1ADB0863F38F11D0E70621083008F01E
:104304005BFE238831460380A0F80280878042F256
:104314002200FFF7A9FE0028C2D001234FF00001BC
:10432400054A63F30701054B08489B1ADB0863F34E
:104334008F11B3E738480020DCE60000FCE60000FB
:104344006FFE00000C1200208FFE0000BBFE000078
:1043540038B58368B3F80150284601F0C5FE044619
:1043640080B901234FF00002124963F30702124B94
:1043740012485B1ADB0863F38F122946BDE8384004
:1043840007F009B9051D6FF08001284607F0ABFE60
:1043940003060AD5D5E8EF3F43F48053C5E8E23F6E
:1043A400002AF7D12046FFF70DFF2046BDE838402C
:1043B40007F0CEBFDCE60000FCE60000FA020100D4
:1043C40070B58568B5F80160304601F08DFE04468D
:1043D40080B901234FF00002124963F30702124B24
:1043E40012485B1ADB083146BDE8704063F38F1254
:1043F40007F0D1B82B7823B90822E91C943007F0D0
:104404004CFD231DD3E8EF2F42F40052C3E8E12F03
:104414000029F7D12046FFF7D5FE2046BDE87040BD
:1044240007F096BFDCE60000FCE60000FA0201009B
:1044340070B506460D4642F221000321FFF74CFCFD
:10444400044678B9BDE8704001234FF000010C4ADE
:1044540063F307010B4B0C489B1ADB0863F38F11C2
:1044640007F08CB80321083008F0A6FD857006809B
:104474002146BDE8704042F22100FFF7F5BD00BFC0
:10448400DCE60000FCE60000E0020100F7B583680A
:10449400D9789A781E8842EA0122ADF80020597929
:1044A4001A79B4B242EA0122ADF802209A79D97994
:1044B400204642EA0122ADF804201A7A5B7A42EAE5
:1044C4000323ADF8063001F00FFE0746A0B901231F
:1044D4004FF00002204963F30702204B20485B1A87
:1044E400DB08214663F38F1207F055F802212046BA
:1044F400FFF79EFF03B0F0BD694601F06FFB38B9CA
:104504001E212046FFF794FF384607F021FFF1E70C
:104514000E2142F22000FFF7DFFB05460028F3D00E
:104524000E21083008F048FD04460E22002107F051
:10453400DEFCBDF8003026806380BDF802302946D9
:10454400A380BDF8043042F22000E380BDF80630B9
:104554002381FFF789FDD7E7DCE60000FCE60000D5
:10456400FA0201002DE9F84F524A534B9B1AC3F348
:10457400C90B524AD36802F114006FF31033D360AD
:1045840001F07CFC471C4FF0FF3239464B4805F0E4
:10459400ADFF60B141F20F03494A4A494A4806F067
:1045A4006FFB404080F311884FF0030002DF434D5E
:1045B400464C17B905F0EAFBDBE7E968C1F30431BF
:1045C400012960D9042968D1297B00295ED140489A
:1045D40008F0C4FC064660B94FF47B63384A3D4991
:1045E400394806F04DFB404080F311884FF003003A
:1045F40002DF4FF0FF31384805F06EFCD4F8C030CC
:1046040093B128F03F0343F0010363F307086BF30E
:104614008F184146314806F0B1FFD4F8C00003F0CA
:10462400B9FE0023C4F8C030304608F0C1FCC4F819
:10463400C0003046FFF710FD014620B329F03F03C8
:1046440043F0010363F307096BF38F194A462448C7
:1046540006F0A1FF204805F013FC304603F004FEE9
:104664000C23204A1F2103FB002000224088FFF76F
:1046740039F8D4F8C00003F08DFE00233046C4F8A6
:10468400C03003F087FE1435013F92E70129FAD1C7
:104694002869343801F098FEF5E72AF03F0343F027
:1046A400020363F3070A6BF38F1A52460E4806F0AF
:1046B40072FFE8E7DCE60000FCE60000C0490020E9
:1046C4009501010077020100E20101003848002051
:1046D4000C490020FF0A0100E0480020800201008C
:1046E400FCFC0000340400209B02010010B5017D95
:1046F4000446012901D0032905D10D48214608F0BB
:104704004AFC002010BD01234FF00002094863F366
:104714000702094B1B1ADB0863F38F12074806F0E4
:104724003AFF204603F036FE6FF01500EAE700BFBB
:10473400FC480020DCE60000FCE60000A5FD0000CB
:1047440038B5037D0446012B0CD041F20A43204ABC
:104754002049214806F094FA404080F311884FF034
:10476400030002DFA389012B0CD841F20B43184A42
:104774001A49194806F084FA404080F311884FF032
:10478400030002DF022104F1080008F045FC02786E
:1047940005461A2A04D801239340114A13420CD126
:1047A40041F20E430A4A0F490B4806F069FA4040A9
:1047B40080F311884FF0030002DF04230A4A2146E4
:1047C4002878FFF70FF8204603F0E4FD002038BDF9
:1047D40095010100B9FD0000E2010100C9010100D9
:1047E40000C00804460201003CEB0000084AD2F86D
:1047F400E4303BB9C16841B1016931B1C2F8E400A8
:10480400184670476FF0440070476FF0150070470A
:10481400384800202DE9F043394C87B004F1700387
:10482400D3E8EF2F42F00202C3E8E12F0029F7D1C9
:1048340003234FF00007334D63F30707324B33492B
:10484400ED1A334EE3792046012B88BF0E46FEF75E
:1048540059FEFCF7ABFAC5F3C90565F38F173B4660
:10486400024631462B4806F0AAFE27460126DFF809
:10487400B090E37907379E422CDB03234FF0000608
:10488400277C63F307063846FEF7B8FE638A65F3B0
:104894008F160493E38A02A9CDE902070593042243
:1048A40033461D4806F0BEFE4FF00006032363F3B3
:1048B400070665F38F16657C2846FEF79FFEADF864
:1048C40000600146A38A2A46144806F090FE07B009
:1048D400BDE8F08328F03F0343F00303384663F355
:1048E4000708FEF70FFEFCF761FA65F38F1802461E
:1048F40031464346484606F062FE0136B9E700BF3A
:1049040038480020FCE60000DCE6000003F7000065
:1049140055F1000077FC000097FC0000D5FC000076
:1049240086FC000000487047DEF1000037B50C46F5
:10493400054618B95CB36FF0150432E00023072272
:1049440069460093CDF8033007F097FA0028F1D0B8
:104954002B78012B04D1AB7903F0C003C02B0ED00C
:1049640001234FF00001124A63F30701114B12486F
:104974009B1ADB0863F38F1106F000FEDBE7284681
:10498400FEF7A2FF0028D5DB6FF0440409E00B4BCF
:10499400DC79012C08D0621C29462046DA71FFF725
:1049A4002FFB204603B030BD6FF00B04F9E700BFC6
:1049B400DCE60000FCE600001EFD00003848002094
:1049C40070B588B001AA002141F20900FFF7BAF9D5
:1049D400214E044688B102234FF000011F4A63F3BD
:1049E40007011F4B1F489B1ADB0863F38F1106F066
:1049F400C5FD0023F37108B070BD019B04909D6850
:104A040006220135ADF8140004A9284607F035FA4A
:104A140018B9019803F0BEFCEBE74FF0FF33062210
:104A240002A928460293ADF80C3007F026FA0028B4
:104A3400EFD0294606220DF1190007F02EFA01984D
:104A44008DF8184003F0A6FC012306A92046F37153
:104A5400FFF7D6FACFE700BF38480020DCE60000B5
:104A6400FCE60000DCFD0000F0B53B4C89B0E779C2
:104A740025469FB994F8623013F0010613D102233E
:104A84004FF00001354A63F30701354B35489B1A53
:104A9400DB0863F38F1106F071FDE671002108460F
:104AA400FFF744FF4EE06A4639464FF60940FFF7E8
:104AB40049F978B102234FF00001284A63F3070152
:104AC400274B29489B1ADB0863F38F1106F056FD28
:104AD400E771E3E7009B9C6866780234371C18BFD3
:104AE4000127874230DC009803F054FC6EB902239E
:104AF4004FF00001194A63F30701194B1B489B1A35
:104B0400DB0863F38F1106F039FDEF71002EC5D079
:104B140000241627E6B202AB062207FB06310DF18C
:104B2400010007F0BAF90123694630468DF80030D8
:104B34000134FFF765FAEA79E3B29A42EAD80C48FD
:104B4400FFF746F909B0F0BD1622214602A807F086
:104B5400A4F90120C5E700BF38480020DCE60000C6
:104B6400FCE60000FAFD000026FE000046FE000000
:104B7400394800202DE9F041684D86B0D5F8E4307D
:104B8400996811F001011BD101AA40F60340FFF717
:104B9400D9F80446002840F0BC80019B9B681B7830
:104BA4005BB905F17003D3E8AF2F02F00502D3E837
:104BB400EF1FC3E8E02F0028F9D1019803F0EAFBC6
:104BC40001AA002141F20300FFF7BCF804460028C3
:104BD40040F09F80019B082299685148013107F0F9
:104BE4005CF9019803F0D6FB214601AA41F20100C9
:104BF400FFF7A8F80446002840F08B8001988368EA
:104C04005A782A74D9789A7842EA01226A821A79FF
:104C14006A74197ADA7942EA0122AA825A799B796A
:104C240042EA0323EB8203F0B5FB214601AA41F2D9
:104C34000200FFF787F8044600286AD1019B40224E
:104C440099683848013107F028F9019803F0A2FB6C
:104C540000F062FE044600285BD195F82A309E06D7
:104C640021D402234FF000012F4A63F307012F4B95
:104C74002F489B1ADB0863F38F1106F07FFC2B7F10
:104C84005C0659D401234FF00001274A63F307015E
:104C9400264B28489B1ADB0863F38F1106F06EFC41
:104CA4006FF0120435E0072140F63340FFF714F8A3
:104CB400074610B96FF036042BE00721083008F0DE
:104CC4007BF921460722064607F011F91B233370AE
:104CD4000623747034712246F370394640F633402B
:104CE400FFF730F80446A0B9012140F63140FEF741
:104CF400F3FF06460028DDD00121083008F06BF9E7
:104D04002246314640F63140FFF71CF8044600289D
:104D1400B5D0204606B0BDE8F08100BF3848002079
:104D24005048002058480020DCE60000FCE6000063
:104D34001D0001004B00010001AA002142F2030002
:104D4400FFF700F804460028E3D1019B0822996884
:104D5400C748013107F0A1F8019803F01BFB214675
:104D640001AA42F20200FEF7EDFF04460028D0D16A
:104D7400019B9B68B3F8012091B2A5F8882021B16A
:104D8400DA78BC48114609F0E9F8019803F002FB0F
:104D94002C7F14F0200400F0C68095F83C301807EE
:104DA40011D501AA002142F21C00FEF7CBFF0446F4
:104DB4000028AED10198836853F8012F5B68C5E9D8
:104DC400202303F0E7FA95F87830990600F1C680BD
:104DD400082142F20100FEF77FFF044600283FF459
:104DE40069AF0821084408F0E7F895F878202146CF
:104DF40012F0020F14BF2F230F23920695F8792087
:104E040048BF43F0400312F0090F4FF0000218BFEF
:104E140043F400630370C3F3072343708270C270CA
:104E2400027142718271C27142F20100FEF78AFF7F
:104E3400044600287FF46DAF2B7F9B061ED4B5F883
:104E44008810D9B901AA41F20500FEF77BFF044698
:104E540000287FF45EAFB5F8883063B9019B9B6886
:104E64005A78997842EA0122A5F888209A888148DC
:104E7400114609F073F8019803F08CFA082140F602
:104E84000140FEF729FF044600283FF413AF082130
:104E9400084408F091F81023037088234370022318
:104EA4000022C37020238270027142718271C37127
:104EB400214640F60140FEF745FF044600287FF4F2
:104EC40028AF01466A464FF60140FEF73BFF6A4EA3
:104ED4006A4BF61AC6F3C90600286CD04FF00001DD
:104EE4000223674863F3070166F38F1106F046FB5C
:104EF400EB79002B7FF40DAFFFF762FDEB79002B0C
:104F04007FF407AFFFF7B0FD044600283FF401AF7C
:104F140001234FF0000163F3070166F38F11594831
:104F240006F02CFBF5E6022140F66D40FEF7D4FEB8
:104F3400064600283FF4BEAE0221083008F03CF8D3
:104F44000123447003702246314640F66D40FEF75B
:104F5400F9FE044600283FF420AFDAE601AA002156
:104F640042F22F00FEF7EEFE044600287FF4D1AE95
:104F740001988368B3F80180B3F8037003F00AFA68
:104F8400042142F22400FEF7A7FE064600283FF45F
:104F940091AE0421083008F00FF82246A0F80080F2
:104FA4004780314642F22400FEF7CCFE0446002836
:104FB4003FF40EAFADE6009B03229F684FF0000361
:104FC40062F30703B7F8012066F38F13032A96BF31
:104FD4002D492E4951F822102D4806F0F0FA0322EB
:104FE4004FF00003B7F8011062F30703022966F3D8
:104FF4008F13B7F8032038D1032A36D8254951F83E
:105004002210254806F0DBFA03224FF0000362F376
:1050140007037A7966F38F13032A96BF1F491B4946
:1050240051F822101E48CDE90112BA7901A9039260
:10503400B7F807200492D7F809200592052206F054
:10504400F1FA009803F0A6F96A4600214FF60240EF
:10505400FEF778FE074638B34FF00001022363F3EE
:10506400070166F38F110F4840E70849C9E700BFFD
:10507400B0480020C4480020FCE60000DCE6000044
:105084006F000100430101002CEB000093040100B8
:105094009300010004EB0000AC0001005CEB000095
:1050A400C4000100F1000100009B0222996811482C
:1050B400013106F0F2FE009803F06CF96A463946B5
:1050C4004FF60340FEF73EFE40B14FF000010223CD
:1050D40063F3070166F38F11074807E70122009B7A
:1050E40006489968114406F0D8FE009803F052F976
:1050F400FEE600BF994800201A01010098480020EC
:1051040070B5434D86B0D5F8E430064693B9012313
:105114004FF000013F4A63F307013F4B3F489B1A9E
:10512400DB0863F38F1106F029FA6FF012042046AE
:1051340006B070BD05F17003D3E8EF4F44F00102EF
:10514400C3E8E12F0029F7D114F001045DD1344BF9
:105154001E606FF00803CDE90444CDE90243CDE9B4
:105164000044304B4FF480622F49304804F02CFF48
:105174002F492E4808F008FF6FF00703CDE90444D7
:10518400CDE90243CDE900442A4B4FF480622A4919
:105194002A4804F019FF2A49284808F0F5FED5F8F2
:1051A400E430DB689847044678B101234FF00002ED
:1051B400184963F30702184B5B1ADB08014663F3D3
:1051C4008F12204806F0E7F9B1E766B9FFF7D2FC81
:1051D40004460028ABD101F079F904460028A6D191
:1051E400FFF718FBA3E705F16C03D3E8EF2F42F0B8
:1051F4000101C3E8E01F0028F7D1D30797D405F1D4
:105204006401114808F023FD91E76FF044048EE730
:1052140038480020DCE60000FCE6000036FC000014
:105224004C0400206945000098210020BC040020A3
:105234004FFC000001390000981D0020500400209C
:1052440055FC00005BFC00000C12002010B5FFF7B9
:1052540091FC044628B901F039F9044608B9FFF76E
:10526400D9FA044B1B681BB12046BDE8104018470F
:1052740010BD00BF4C0400202DE9F04FAC4E8DB0A2
:1052840004468A4606F17000012193469946DDF8EA
:105294005C8006F049FF002800F03D812078F37916
:1052A400834205D86FF0150528460DB0BDE8F08F90
:1052B4000023C0EBC000072206A930440693CDF8B2
:1052C4001B3006F0DAFD0028ECD06378DD0705D446
:1052D400327C082A02D862889F2AE3D9D80602D4ED
:1052E400B8F1000F08D16288A3889A42DAD81F2A3D
:1052F400D8D9B3F5804FD5D805218E4806F014FFD0
:10530400002840F00B810F218A4806F00DFF68B990
:105314000A21884806F008FF40B10B21854806F0B1
:1053240003FF18B10C21834806F0FEFE0F22002172
:1053340008A806F0DCFD6388327AADF82030A38833
:10534400ADF8223007238DF82D3023789A4204D00B
:105354006FF48031774806F0C6FE002327788DF875
:105364002E303772637813F0010263D0FB00D91B2F
:10537400715C012909D0DF1BF35D8DF82530B8F18C
:10538400000F10D18DF8248019E0072010FB0710BE
:105394003044CDE90223FEF71BFDDDE90223054677
:1053A4000028E8D080E76378414613F0100F18BF57
:1053B40004220DF126008DF8242006F091FE0F2121
:1053C40042F20600FEF788FC0546002800F0A9809A
:1053D4000F2208A9083007F0F5FD2946002242F201
:1053E4000600FEF7AFFC054600287FF45DAFB8F178
:1053F400000F46D000260120FEF7D2FD0546002806
:1054040066D001234FF000014B4A63F307014B4B75
:105414004B489B1ADB0863F38F1106F0AFF8002E9C
:105424003FF442AF3046002100F09AFD304606F0CA
:105434008FFF39E759071DD5FB00D91B715C012982
:1054440016D1072010FB071030440293FEF7C0FC6E
:105454000546029BDF1BF35D8DF82530002D7FF49C
:1054640023AFB9F1000F0AD002238DF82430A6E748
:105474001546EFE706F05EFE01230546ECE703233D
:10548400F3E763785946C3F3C00203F001030192C2
:1054940000934A46169B5046FEF738FD0546002801
:1054A4007FF402AF6378DB07A4D56FF0FF030493A6
:1054B4004FF6FF7304A92078ADF814308DF8163038
:1054C40000F014FD064678B3032100F049FD92E78D
:1054D40016B1304606F03CFF6278092182F00202E0
:1054E400C2F34002134806F009FE62780621C2F3B3
:1054F400C002104806F002FE6278072102F00102A1
:105504000C4806F0FBFD62780821C2F380020948CA
:1055140006F0F4FDC8E66FF00A05C5E66FF0440531
:10552400C2E66FF03605BFE66FF00B05BCE600BFC0
:1055340038480020A8480020DCE60000FCE6000013
:105544008AFD000013B50721184806F0EDFD60B987
:1055540041F60F03164A1749174805F091FB4040DE
:1055640080F311884FF0030002DF144B694618687A
:105574009A889B7900908DF80630114BADF8042081
:10558400187A00F0B3FC044668B1032100F0E8FC8B
:105594000120FEF705FD18B10021204600F0E0FCD3
:1055A400204606F0D5FE02B010BD00BFA84800207A
:1055B400950101004CFD0000E2010100E4E7000058
:1055C40038480020F8B586683578A5BBB6F8017070
:1055D400384600F089FD0446E0B901234FF000028B
:1055E400154963F30702154B15485B1ADB0863F38F
:1055F4008F12394605F0CFFF0921124806F094FDB9
:10560400C8B105210F4806F08FFDA0B9BDE8F840E8
:10561400FFF798BFF3782946437200F0A1FCA37802
:105624002580012B204603D0BDE8F84006F090BE4B
:1056340006F08EFEE0E7F8BDDCE60000FCE60000C4
:10564400F7FF0000A8480020F0B5037885B00546B0
:1056540043B3C378012B62D10020FEF71DF9044641
:1056640000285CD029783C2941720CD16FF02001CC
:10567400504806F038FD0021204600F071FC204619
:1056840006F066FE4BE002234FF000024A4863F343
:1056940007024A4B1B1ADB0863F38F12484805F0D4
:1056A4007AFFECE7041DB0F80170214602A806F069
:1056B40017FD9DF80830BEB2023BDBB2012B30D897
:1056C400062205F111010DF101008DF8083006F0F4
:1056D400E4FB01238DF80030EB78012B0CD102A8F8
:1056E400FEF7DAF8EB780446012B04D16FF02001C1
:1056F400304806F0F8FCCCB901234FF000022E49E3
:1057040063F307022D4B2F485B1ADB08314663F322
:105714008F1205F040FF0721304606F04BFD05B01F
:10572400F0BD2146684606F0DBFCD5E7204600269E
:1057340020F8707B02A906F0D3FC2A7EEB7D43EAB5
:105744000223A4F88630AA7E6B7E43EA0223A4F8DF
:105754008C30EB7E2A7F43EA0223A4F88E30EB7868
:105764006672012BE3701CD1694604F1770006F0E0
:10577400B7FC217A144DC1EBC101294404F17E0028
:1057840006F0AEFC092105F1700006F0CDFC40B135
:105794003246D5F8841001F04003134301D0FFF7DB
:1057A400D1FE2046062100F0DBFB2046FEF70AFD71
:1057B40065E700BFA8480020DCE60000FCE6000026
:1057C400E5FE0000FEFE000038480020012838B540
:1057D40005460CBF0648074807F0BAFB044620B14B
:1057E4000121083007F0D3FB2575204638BD00BFE2
:1057F400C44D0020044D002010B501464FF0200395
:10580400EFF3118083F31188BFF36F8F00230C4AE9
:10581400D2F8C040C2F8C03080F31188BFF36F8F54
:1058240024B9BDE810400120FFF7D0BF012104F1E5
:1058340008002175A38107F0AAFB204610BD00BF14
:10584400384800200E280B4610B5114615D30F28F2
:105854000ED9132811D10D4807F07AFB044628B15C
:105864000121083007F093FB01232375204610BD66
:105874001046BDE81040FFF7BFBF0BB10448EBE78B
:105884000120BDE81040FFF7A1BF00BFE44D002098
:10589400644D002030B500248DB002AA002142F2EC
:1058A4001800FEF74FFA054658BB029B0822996878
:1058B40004AB03EBC400013106F0EFFA01340298A3
:1058C40002F068FD042CE8D108F02EFC0823CDE991
:1058D4000201009320226B4404A90B4805F0ABFDA0
:1058E40078B901234FF00001084A63F30701084B1C
:1058F40008489B1ADB0863F38F1105F03FFE6FF035
:10590400040528460DB030BD30000020DCE6000060
:10591400ECE60000B504010013B5184B93F93B30D5
:10592400002B27DA01AA002142F21800FEF70AFA36
:10593400D8B9019B082299681148013105F05BFD33
:105944000446019802F026FD8CB901234FF00001B2
:105954000C4A63F307010C4B0C489B1ADB0863F3F6
:105964008F1105F00BFE6FF0040002B010BDFFF7BD
:1059740091FFFAE76FF02200F7E700BF38480020F4
:1059840030000020DCE60000ECE600009B0401008F
:1059940038B50A4A04460D4605F066FD431C07D196
:1059A400FFF778FF48B9054A2946204605F05CFD13
:1059B400012814BF6FF00400002038BD300000201F
:1059C40000230146C0E90133C360014808F03FB930
:1059D400F44C002038B50546084B1C68697A2CB98C
:1059E40051B92846BDE8384002F09ABB23680BB190
:1059F400284698472469F1E738BD00BF28050020F0
:105A04002DE9F84304460E4691461F464D694FF072
:105A1400FF31444804F060FAA37A062B52D10421E2
:105A240006F1080007F0DFFA2288B38942EA093256
:105A3400043B028043804FF02003EFF3118283F391
:105A44001188BFF36F8F002D4ED000232B60A36904
:105A5400002B46D1C4E9055582F31188BFF36F8F3B
:105A6400022330463375FEF7F7FA0146002857D073
:105A740001234FF000022C4863F307022B4B1B1A3F
:105A8400DB0863F38F122A4805F085FD4FF02003ED
:105A9400EFF3118183F31188BFF36F8F002D39D099
:105AA4000022636953B19D4231D12B684ABBA2697C
:105AB4006361954200D1A36100232B6081F31188B7
:105AC400BFF36F8F174804F0DBF915B12846FFF7D1
:105AD40077FF1FB1304602F05DFC00273846BDE871
